:020000040800F2
:100000008009002045010008550F0008570A000824
:10001000510F00080D070008131F00080000000022
:10002000000000000000000000000000CD180008E3
:10003000D5080008000000005B150008A91A000898
:100040005F0100085F0100085F0100085F01000810
:100050005F0100085F0100085F0100085F01000800
:100060005F0100085F0100085F0100085F010008F0
:100070005F0100085F0100085F0100085F010008E0
:100080005F0100085F0100085F0100085F010008D0
:100090005F0100085F0100085F0100085F010008C0
:1000A0005F0100085F0100085F0100085F010008B0
:1000B0005F0100085F0100085F0100085F010008A0
:1000C0005F0100085F0100085F0100085F01000890
:1000D0005F010008391C00085F010008D91C0008F6
:1000E0005F0100085F0100085F0100085F01000870
:1000F0005F0100085F0100085F0100085F01000860
:100100005F0100085F0100085F0100085F0100084F
:10011000E11B00085F0100085F0100085F010008A3
:100120005F0100085F0100085F0100085F0100082F
:10013000DFF80CD000F0D8FA00480047D1290008B9
:10014000800900200648804706480047FEE7FEE792
:10015000FEE7FEE7FEE7FEE7FEE7FEE7FEE7FEE777
:10016000AD1A000831010008D2B201E000F8012BFD
:10017000491EFBD270470022F6E710B513460A4627
:1001800004461946FFF7F0FF204610BD30B505467E
:100190002A460B4612F8010B13F8014B08B1A04296
:1001A000F8D01CB1002802D06D1CF1E7284630BD04
:1001B00010B5002200E0521C835C8C5CA34201D18C
:1001C000002BF8D1D8B2E1B2401A10BD2DE9FE4F94
:1001D000804681EA0300C00F0C46009021F00041E8
:1001E00023F00045B8EB0200A94105D24046214664
:1001F00090461C460B46024623F00040104347D071
:10020000270DC7F30A00C3F30A510290401A019068
:1002100040286BDAC3F3130040F4801B0098924629
:1002200020B10023D2EB030A63EB0B0B0198594674
:10023000C0F14002504600F0B0F906460D46504667
:100240005946019A00F0C8F910EB080061410024FA
:1002500087EA115284EAE7731A4340D0009A62B3E6
:10026000019A012A4FEA075215DC001B61EB0201DB
:100270004FF0004202EA0752CDE90042001C41F56E
:10028000801132462B4600F0C8F903B0BDE8F08F6C
:1002900040462146F9E7001B61EB0201001C41F5D5
:1002A000801300185B412018A2F5001747EB0301EB
:1002B00040EAD570B6196D4111E06D084FEA360677
:1002C00045EAC0754FEA0752001B61EB0201001CB2
:1002D00041F5801149084FEA30000019514132467A
:1002E0002B4603B0BDE8F04F00F088B9009801221A
:1002F00040000023D0EB020263EBE073009821463C
:100300004FEAE074B8EB000061EB0401E9E783F029
:1003100000435BE781F0004158E72DE9FE4F81EA99
:10032000030404F0004421F0004100944FF0000B5E
:1003300023F0004350EA01045ED052EA03045BD08C
:10034000C3F30A54C1F30A552C44A4F2F3340194C4
:10035000A0FB0254C1F3130141F48011C3F3130352
:1003600043F4801301FB024400FB034E840A970A06
:1003700044EA815447EA8357A4FB076802958D0A33
:1003800005FB07854FEA932C04FB0C542705029DBF
:100390004FEA065847EA1637B5EB08056EEB070C2F
:1003A000870E920E47EA811742EA8312A7FB0201E9
:1003B000B6EB0B0164EB00042B0D43EA0C335E1823
:1003C00044EB1C50DA465146E7FB0201C5F3130427
:1003D0004FEA0B3343EA14534FEA0432019C43EAD9
:1003E0000603A4F10C040294009CCDE900B400F0D3
:1003F00014F903B0BDE8F08F00200146F9E72DE9BC
:10040000F04D81EA030404F0004B21F0004514464E
:100410004FF0000A23F0004150EA050220D054EAD0
:1004200001021DD0C5F30A570246C5F31303C1F3F9
:100430001300C1F30A5640F4801543F48013A7EB70
:100440000608101BD64608F2FD3873EB050002D3F0
:1004500008F1010801E092185B41B8F1000F03DADE
:1004600000200146BDE8F08D00204FF480110646C3
:1004700084460EE0171B73EB050705D3121B63EBD5
:10048000050306434CEA010C49084FEA3000921874
:100490005B4150EA0107EDD152EA030012D082EA33
:1004A000040083EA0501084305D0101BAB4106D2C6
:1004B0000122002306E000224FF0004302E06FF02B
:1004C000010253101AEB06004CEB085110EB0A0026
:1004D00041EB0B01BDE8F04D00F090B830B5041EC3
:1004E00071F1000404DB4FF00044404264EB010171
:1004F000141E73F1000405DB1C464FF0004352420A
:1005000063EB0403994208BF904230BD30B50B46FF
:10051000014600202022012409E021FA02F59D4233
:1005200005D303FA02F5491B04FA02F52844151E07
:10053000A2F10102F1DC30BD2DE9F05F054600209B
:1005400092469B4688460646814640241BE0284644
:1005500041464746224600F02FF853465A46C01AF5
:10056000914110D311461846224600F016F82D1A74
:1005700067EB01084F4622460120002100F00DF8EC
:1005800017EB00094E41201EA4F10104DFDC4846B0
:1005900031462A464346BDE8F09F202A04DB203A34
:1005A00000FA02F1002070479140C2F1200320FAC6
:1005B00003F3194390407047202A04DB203A21FAC4
:1005C00002F00021704721FA02F3D040C2F120026C
:1005D0009140084319467047202A06DBCB17203A82
:1005E00041FA02F043EAE07306E041FA02F3D04038
:1005F000C2F12002914008431946704710B5141EFD
:1006000073F1000408DA401C41F1000192185B41CB
:100610001A4301D120F0010010BD2DE9F04D9246A2
:100620009B4611B1B1FA81F202E0B0FA80F22032B9
:100630009046FFF7B2FF04460F4640EA0A0041EA3F
:100640000B0153465A46084313D0114653EA0100A2
:1006500019D0C8F140025046FFF7AEFF05460E46DE
:10066000504659464246FFF798FF084305D00120FF
:1006700004E020463946BDE8F08D0020054346EAF7
:10068000E0762C4337430A986305E40AA0EB0800A0
:100690000022FD0A44EA47540A3002D500200146F0
:1006A000E9E7010510196941DDE9084500196941CB
:1006B000BDE8F04DA2E7C1F30A52C1F3130140F2C5
:1006C000FF3341F480119A4202DA0020014670475C
:1006D00040F233439A42A2F2334202DC5242FFF725
:1006E0006BBFFFF75ABF0000064C074D06E0E068FD
:1006F00040F0010394E8070098471034AC42F6D369
:10070000FFF71AFD503700087037000800BFFEE7FA
:1007100010B50024002000F045F804E0601CC4B2CD
:10072000012000F0E4F840210E4800F082F908B101
:10073000642CF3DB642C01DB012010BD002404E0F9
:10074000601CC4B2012000F0D2F84021054800F03E
:1007500070F908B9642CF3DB642C01DB0120ECE7B1
:100760000020EAE70008014008B50121042000F05C
:1007700015FF4020ADF8000010208DF80300032085
:100780008DF802006946064800F0C8F84021044888
:1007900000F05AF900F088F8FFF7BAFF08BD000032
:1007A0000008014038B504464CB14020ADF80000C7
:1007B00003208DF8020010208DF8030005E0402092
:1007C000ADF8000004208DF803006946014800F0F0
:1007D000A5F838BD0008014010B5002404E0601CF5
:1007E000C4B2012000F083F84021104800F021F944
:1007F00008B1642CF3DB002404E0601CC4B20120C7
:1008000000F075F84021094800F013F908B9642C8C
:10081000F3DB282000F06BF84021044800F009F9D0
:1008200008B1012010BD0020FCE7000000080140D5
:1008300070B50024002506E06006040EFFF7CCFF2B
:100840000443681CC5B2082DF6DB204670BD7CB59C
:1008500005460E4600F028F8FFF75AFFF8B90024C5
:1008600005E0FFF7E5FF0DF80400601CC4B2052C9D
:10087000F7DB9DF800009DF8011008449DF8021078
:1008800008449DF8031008449DF80410884208D1DC
:100890009DF8000030709DF80200287001E00120F2
:1008A0007CBD0020FCE7000010B50120FFF77AFFB7
:1008B0004021074800F0C6F8142000F00CF8402151
:1008C000034800F0C1F80D2000F011F810BD000041
:1008D00000080140704700B5034603E04FF47A700A
:1008E00000F005F8181EA3F10103F7D100BD00EBDD
:1008F000C001C9004FF0E022516100219161052142
:10090000116100BF4FF0E021096901F48031002935
:10091000F8D004214FF0E022116170472DE9F04139
:10092000024600250026002000230024002791F81D
:1009300003C00CF00F0591F803C00CF0100CBCF1D3
:10094000000F03D091F802C04CEA050591F800C0F1
:10095000BCF1000F31D0146800202BE04FF0010CE7
:100960000CFA00F3B1F800C00CEA03069E4220D155
:1009700083004FF00F0C0CFA03F7BC4305FA03FC9D
:100980004CEA040491F803C0BCF1280F06D14FF0E3
:10099000010C0CFA00FCC2F814C00AE091F803C084
:1009A000BCF1480F05D14FF0010C0CFA00FCC2F865
:1009B00010C0401C0828D1D31460B1F800C0BCF1AD
:1009C000FF0F34DD546800202EE000F1080C4FF0DA
:1009D000010808FA0CF3B1F800C00CEA03069E42C5
:1009E00021D183004FF00F0C0CFA03F7BC4305FA3A
:1009F00003FC4CEA040491F803C0BCF1280F05D1B4
:100A000000F1080C08FA0CF8C2F8148091F803C041
:100A1000BCF1480F07D100F1080C4FF0010808FAAB
:100A20000CF8C2F81080401C0828CED35460BDE8F2
:100A3000F0810246002093680B400BB1012000E0DA
:100A40000020704741617047016170470AB1016140
:100A500000E04161704700BFFEE7000010B50024D0
:100A600002211348FFF7E5FF68B91420FFF733FFB1
:100A700000BF02210E48FFF7DCFF0028F9D0142048
:100A8000FFF729FF012401210948FFF7D2FF68B9C8
:100A90001420FFF720FF00BF01210548FFF7C9FF21
:100AA0000028F9D01420FFF716FF0224204610BDBD
:100AB000000C014008B50121082000F06FFD48201E
:100AC0008DF803000320ADF800008DF802006946A0
:100AD0000148FFF723FF08BD000C014010B520219D
:100AE0000148FFF7B1FF10BD000C014010B52021F7
:100AF0000148FFF7A7FF10BD000C014010B52021F1
:100B00000148FFF7A1FF10BD0018014010B52021DA
:100B10000148FFF797FF10BD0018014008B50121FB
:100B2000482000F03BFD10208DF803002020ADF898
:100B3000000003208DF8020069460C48FFF7EEFE26
:100B400010208DF803002020ADF8000003208DF860
:100B5000020069460648FFF7E1FE20210448FFF73E
:100B600073FF20210148FFF76FFF08BD000C014013
:100B7000001801402DE9F04106460C461746002EAC
:100B800028D024B1012C0DD0022C21D115E0012553
:100B900005E03946284600F0E1F8681CC5B2092D89
:100BA000F7DB16E0012505E03946284600F080F81D
:100BB000681CC5B2052DF7DB0BE0012505E03946C1
:100BC000284600F067F9681CC5B2052DF7DB00E088
:100BD00000BF28E024B1012C0DD0022C21D115E05A
:100BE000082505E03946284600F0B8F8681EC5B269
:100BF000002DF7DC16E0042505E03946284600F014
:100C000057F8681EC5B2002DF7DC0BE0042505E09F
:100C10003946284600F03EF9681EC5B2002DF7DCC3
:100C200000E000BF00BFBDE8F0812DE9F0410746BC
:100C3000884614461D46002606E02A4641463846A8
:100C4000FFF798FF701C86B2A0012D2190FBF1F0F8
:100C5000B042F2DCBDE8F08108B50121042000F0CB
:100C60009DFC1E20ADF8000003208DF8020010202E
:100C70008DF8030069460448FFF750FE1E21024824
:100C8000FFF7E0FE08BD00000008014010B5012399
:100C90004FF4B47200210846FFF7C7FF4FF4E1514B
:100CA0004CF2503002F028F800F04AF910BD000074
:100CB00070B504460D46052C49D2DFE804F0030464
:100CC0001526370043E002212348FFF7BBFE04212D
:100CD0002148FFF7B9FE08211F48FFF7B5FE102194
:100CE0001D48FFF7B1FE32E002211B48FFF7ACFEC2
:100CF00004211948FFF7A6FE08211748FFF7A4FEB4
:100D000010211548FFF7A0FE21E002211248FFF74D
:100D10009BFE04211048FFF797FE08210E48FFF7BD
:100D200091FE10210C48FFF78FFE10E002210A48C7
:100D3000FFF78AFE04210848FFF786FE08210648CF
:100D4000FFF782FE10210448FFF77CFE00BF00BFC2
:100D50002846FFF7C0FD70BD0008014070B504468D
:100D60000D46092C06D2DFE804F005061728394A9B
:100D70005B6C7D0087E002214548FFF763FE04219C
:100D80004348FFF761FE08214148FFF75DFE10214F
:100D90003F48FFF759FE76E002213D48FFF752FE3B
:100DA00004213B48FFF74EFE08213948FFF74CFE6F
:100DB00010213748FFF748FE65E002213448FFF76D
:100DC00043FE04213248FFF73DFE08213048FFF77B
:100DD0003BFE10212E48FFF737FE54E002212C483D
:100DE000FFF732FE04212A48FFF72CFE082128488D
:100DF000FFF728FE10212648FFF726FE43E00221D8
:100E00002348FFF721FE04212148FFF71DFE08219A
:100E10001F48FFF717FE10211D48FFF715FE32E0AF
:100E200002211B48FFF710FE04211948FFF70CFEB2
:100E300008211748FFF706FE10211548FFF702FEAC
:100E400021E002211248FFF7FFFD04211048FFF7BF
:100E5000FBFD08210E48FFF7F7FD10210C48FFF7B6
:100E6000F1FD10E002210A48FFF7ECFD04210848DB
:100E7000FFF7EAFD08210648FFF7E6FD10210448C8
:100E8000FFF7E0FD00BF00BF2846FFF724FD70BD5F
:100E90000008014070B504460D46052C49D2DFE834
:100EA00004F003041526370043E002212348FFF72E
:100EB000C9FD04212148FFF7C7FD08211F48FFF79E
:100EC000C3FD10211D48FFF7BDFD32E002211B4884
:100ED000FFF7B8FD04211948FFF7B4FD08211748B2
:100EE000FFF7B2FD10211548FFF7AEFD21E002210A
:100EF0001248FFF7A9FD04211048FFF7A3FD0821C0
:100F00000E48FFF79FFD10210C48FFF79DFD10E0F4
:100F100002210A48FFF798FD04210848FFF794FDD5
:100F200008210648FFF78EFD10210448FFF78AFDCF
:100F300000BF00BF2846FFF7CEFC70BD000801408F
:100F400010B51E210148FFF77DFD10BD00080140CE
:100F500000BFFEE77047000070B5002100230F229C
:100F6000C47804B3154C246804F4E064C4F5E06468
:100F7000210AC1F10403CA40447804FA03F18478D9
:100F80001440214309010E4C0678A155047804F061
:100F90001F050124AC4005786D11AD0005F1E02579
:100FA000C5F8004109E0047804F01F050124AC40B5
:100FB000044D0678761145F8264070BD0CED00E032
:100FC00000E400E080E100E002490143024A1160D0
:100FD000704700000000FA050CED00E000200CE076
:100FE000002106E00022064B03EBC0135A544A1CB2
:100FF000D1B28029F6DB421CD0B20828F0DB704762
:10100000440000202DE9F04304460D4616461F46D5
:10101000284638E0224631E0002A2DDB7F2A2BDCEF
:10102000002829DB3F2827DC4FEAE07C00EB5C7CD2
:101030004FEAEC0CDFF8588008EBCC1C1CF802C01F
:1010400003464FEAE07800EB58784FEAE808A0EB57
:10105000C8094FF0010808FA09F82CEA080C014603
:101060004FEAE07800EB58784FEAE808DFF8209084
:1010700009EBC81808F802C0511C0AB2A119914224
:10108000CADC411C08B2E9198142C3DCBDE8F08327
:101090004400002038B5002406E0002500E06D1C67
:1010A000B5F57A7FFBD3641CB4F57A7FF5D30121C3
:1010B000082000F073FA14208DF8030003208DF847
:1010C00002004FF48070ADF8000069460848FFF751
:1010D00025FC4FF40070ADF8000069460448FFF7A6
:1010E0001DFC012000F0FAF9012000F003FA38BDE0
:1010F000000C014070B50546002411E0802121411B
:10110000294009B1012100E00021084600F0F2F970
:10111000012000F0E3F9002000F0E0F9601CC4B207
:10112000082CEBDB012000F0D9F9002000F0D6F903
:1011300070BD10B5012000F0DDF9012000F0CEF9FE
:10114000002000F0D7F9002000F0C8F910BD10B55C
:10115000002000F0CFF9012000F0C0F9012000F0DC
:10116000C9F910BD10B5FFF795FFAE2000F0CEF91C
:10117000D52000F0CBF9802000F0C8F9A82000F0BD
:10118000C5F93F2000F0C2F9D32000F0BFF90020DC
:1011900000F0BCF9402000F0B9F9A12000F0B6F948
:1011A000C82000F0B3F9DA2000F0B0F9122000F006
:1011B000ADF9812000F0AAF9CF2000F0A7F9D920DD
:1011C00000F0A4F9F12000F0A1F9DB2000F09EF975
:1011D000302000F09BF9A42000F098F9A62000F040
:1011E00095F98D2000F092F9142000F08FF9AF20CE
:1011F00000F08CF9FFF7F2FE00F05CF910BD0FB4BF
:1012000070B5C2B005460E4614464AA8019002A821
:10121000019A499900F048FF00200190234602AA54
:101220003146284600F0BEF842B070BC5DF814FBB1
:1012300070B505460C4645F0B00000F067F9102186
:1012400041EA141000F062F904F00F0000F05EF9BA
:1012500070BD0000F8B506460F4614461D46082D21
:101260000CD1A4F120000E4901EB0010102308223C
:1012700039460090304600F017F80FE0062D0DD1EA
:10128000A4F1200000EB4000064901EB40000823D8
:10129000062239460090304600F006F8F8BD0000FE
:1012A000602D0008503300082DE9FF4F80460E46A0
:1012B0009146DDF834B0002500244A4631464046C8
:1012C000039BFFF79FFE00BF5EE0002558E008EBA0
:1012D0000500002852DB08EB05007F284EDC304675
:1012E000F11706EB5171C9100FB2F11706EB5171EE
:1012F000C910A6EBC10A002E05DA781E07B20AF162
:1013000008000FFA80FA3819002817DB3819072867
:1013100014DC3819224901EBC01008EB0501405CD0
:1013200004FB09511BF8011001FA0AF108433919AD
:101330001B4A02EBC11108EB050288543819401C06
:1013400000281BDB3819401C072817DC3819401C03
:10135000134901EBC01008EB0501405C04FB095187
:101360001BF80110CAF10802114108433919491C40
:101370000B4A02EBC11108EB05028854681CC5B288
:101380004D45A4DB601CC4B20399481EC11700EB95
:101390005171012202EBE101A14296DCBDE8FF8F11
:1013A000440000202DE9FE4F07468A461446984621
:1013B0000025AB46002672E0605D00F0800058B961
:1013C0004FF0010B2846691C8DB2205C8DF804009B
:1013D00000208DF8050013E04FF0020B2846691C31
:1013E0008DB2205C8DF80400605D00B95AE028469B
:1013F000691C8DB2205C8DF8050000208DF8060078
:10140000BBF1010F0BD19DF80420B91908B2434676
:101410005146FFF71FFF06EB080086B23FE04FF092
:1014200000090EE0C9EBC90101EB81011F4A8818D0
:1014300001A9FEF7BDFE00B90EE009F101001FFA97
:1014400080F9C9EBC90101EB8101184A881818A17C
:10145000FEF7AEFE0028E5D100BFB8F1080F12D1AB
:10146000C9EBC90000EB800010490844C01CB91941
:10147000009008B210231A465146FFF715FF06F1F7
:10148000100086B20BE0B8F1060F08D1B91908B206
:1014900006233F225146FFF7DDFEB01D86B2605D98
:1014A000002889D100BFBDE8FE8F00008A35000802
:1014B0000000000010B500240BE000212046FFF7DB
:1014C000B7FE054901EBC410802100F02FF8601C25
:1014D000C4B2082CF1DB10BD4400002010B5044656
:1014E00022464FF480710248FFF7B0FA10BD0000A9
:1014F000000C014010B5044622464FF4007102482A
:10150000FFF7A4FA10BD0000000C014010B504461E
:10151000FFF70FFE7820FFF7EDFD0020FFF7EAFD53
:101520002046FFF7E7FDFFF712FE10BD70B5054638
:101530000E46FFF7FEFD7820FFF7DCFD4020FFF7A9
:10154000D9FD002404E0285DFFF7D4FD601CC4B27F
:10155000B442F8DBFFF7FBFD70BD704729B1064AC6
:10156000D2690243044BDA6104E0034AD269824340
:10157000014BDA61704700000010024029B1064AB1
:1015800012690243044B1A6104E0034A1269824360
:10159000014B1A61704700000010024029B1064A51
:1015A00092690243044B9A6104E0034A92698243C0
:1015B000014B9A61704700000010024030B50021D5
:1015C0000022002400232D4D6D6805F00C0121B18F
:1015D000042905D0082923D105E0294D056022E022
:1015E000274D05601FE0254D6D6805F47012234DF1
:1015F0006D6805F48034022505EB92421CB9214D3B
:10160000554305600BE01D4D6D6805F400351DB1B7
:101610001C4D5543056002E0194D5543056002E03D
:10162000174D056000BF00BF144D6D6805F0F00157
:101630000909154D6B5C0568DD4045600F4D6D680F
:1016400005F4E061090A104D6B5C4568DD4085607A
:101650000A4D6D6805F46051C90A0B4D6B5C456815
:10166000DD40C560054D6D6805F44041890B074DAF
:101670006B5CC568B5FBF3F5056130BD0010024039
:1016800000127A0000093D00000000201000002038
:1016900010B586B0044601213020FFF77FFF0121FD
:1016A000C804FFF75BFF8020ADF8140010208DF810
:1016B000170003208DF8160005A92C48FFF72EF916
:1016C0004FF48060ADF8140018208DF81700032047
:1016D0008DF8160005A92648FFF720F94FF40060A1
:1016E000ADF8140004208DF8170005A92048FFF775
:1016F00015F90121C804FFF741FF00214FF4002034
:10170000FFF73CFF01940020ADF80800ADF80A0097
:10171000ADF80C00ADF810000C20ADF80E0001A9DA
:10172000144800F081FB34208DF8000002208DF871
:1017300001008DF8020001208DF803006846FFF7D4
:101740000BFC012240F225510A4800F047FB012220
:1017500040F22441074800F041FB0121054800F018
:10176000FAFA00200449086006B010BD00140140D8
:1017700000100140004C00409C81224230B50246DE
:101780000D4C2378002000240C700C4C2478012C84
:1017900010D100BF04E00A4C245C1454441CE0B295
:1017A0009842F8DB044C24780C700024024D2C7015
:1017B000024D2C7030BD00001A0000201B000020DC
:1017C0002805002070B505460E4601200F49086027
:1017D00000240CE000BF40210D4800F0C8FA0028AA
:1017E000F9D0295D0A4800F090FB601CC4B2B442F5
:1017F000F0DB00BF4021064800F0B9FA0028F9D01C
:101800000020044908700149086070BD9C81224293
:10181000004C00401A00002010B508212148FFF7B5
:10182000D1FF4FF4FA70FFF756F81F491F48FFF732
:10183000A5FF1E4800791D49C97840EA01200A2108
:1018400090FBF1F01A4908701848807917494979D6
:1018500040EA01200A2190FBF1F016490870134874
:10186000007A1249C97940EA01200A2190FBF1F07F
:101870001149087008211148FFF7A4FF4FF4FA70CE
:10188000FFF729F80E490F48FFF778FF0D48007958
:101890000C49C97840EA01200A2190FBF1F00A497D
:1018A000087010BD200000203000002068050020D6
:1018B0001D0000201C0000201E0000202800002029
:1018C00031000020340000201F000020704700007D
:1018D00010B586B0044601218803FFF75FFE0121A1
:1018E0000420FFF75BFE18208DF817004FF40070FE
:1018F000ADF8140003208DF8160005A91F48FFF766
:101900000DF848208DF817004FF48060ADF81400F2
:1019100003208DF8160005A91848FEF7FFFF019473
:101920000020ADF810000C20ADF80E000020ADF83E
:101930000C00ADF80A00ADF8080001A9104800F04D
:1019400073FA012240F225510D4800F047FA4FF496
:10195000A060FFF739FB25208DF8000001208DF8ED
:1019600003008DF801008DF802006846FFF7F4FAD5
:101970000121034800F0EFF906B010BD0008014056
:101980000038014010B504462146054800F0BDFA74
:1019900000BF8021024800F0EAF90028F9D010BD0C
:1019A0000038014070B50446002504E0605DFFF793
:1019B000E9FF681CC5B2605D0028F7D170BD10B5A5
:1019C00000F002F810BD00000CB50020019000905E
:1019D0003348006840F480303149086000BF304827
:1019E000006800F4003000900198401C01900098BD
:1019F00018B90198B0F5A06FF1D12948006800F43A
:101A0000003010B10120009001E00020009000980B
:101A1000012843D12348006840F0100021490860A4
:101A20000846006820F0030008600846006840F09F
:101A3000020008601A484068194948600846406832
:101A400048600846406840F4806048600846406846
:101A500020F47C1048600846406840F4E810486074
:101A60000846006840F08070086000BF0C480068BD
:101A700000F000700028F9D00948406820F0030009
:101A8000074948600846406840F00200486000BFCF
:101A90000348406800F00C000828F9D10CBD000094
:101AA00000100240002002407047000010B51348AB
:101AB000006840F00100114908600846406810497C
:101AC00008400E494860084600680E4908400B4926
:101AD00008600846006820F48020086008464068D6
:101AE00020F4FE0048604FF41F008860FFF767FF96
:101AF0004FF000600449086010BD00000010024073
:101B00000000FFF8FFFFF6FE08ED00E0CA43028286
:101B1000704721B1028842F00102028004E002888D
:101B20004FF6FE731A40028070471AB183890B4347
:101B3000838102E083898B4383817047002202887E
:101B40001D4B98420ED01D4B98420BD0B0F1804FE8
:101B500008D01B4B984205D01A4B984202D01A4B22
:101B6000984204D14FF68F731A404B881A43174B93
:101B7000984207D0164B984204D04FF6FF431A40C4
:101B8000CB881A4302808B8883850B8803850A4B98
:101B900098420BD0094B984208D00E4B984205D082
:101BA0000D4B984202D00D4B984201D10B7A03861F
:101BB0000123838270470000002C01400034014063
:101BC0000004004000080040000C004000100040ED
:101BD0000014004000400140004401400048014022
:101BE00010B540F22551104800F0CEF868B10E480B
:101BF00000F086F9C4B20D480D49097844540C48E8
:101C00000078401C0A4908700DE040F22441064863
:101C100000F0BAF838B1044800880348001D008875
:101C200001200449087010BD004C00402805002028
:101C30001A0000201B00002010B540F22551214859
:101C400000F0A2F801283CD11E4800F059F9C4B2B6
:101C50001D48007858B9402C2DD11C48007850BB45
:101C600001201949087000201949087023E016481E
:101C7000007801280FD10D2C03D1022012490870E1
:101C800019E0144812490978445411480078401C5E
:101C90000F4908700FE00C48007802280BD10A2C7D
:101CA00009D10020084908700A49094A1278885465
:101CB00001200649087040F22551024800F03CF826
:101CC00000BF10BD003801401500002014000020A6
:101CD000160000204404002010B540F2255112489F
:101CE00000F052F868B1104800F00AF9C4B20F4889
:101CF0000F49097844540E480078401C0C4908707C
:101D000010E040F22441084800F03EF850B1064887
:101D100000880548001D0088012006490870002041
:101D20000349087010BD000000480040A8040020CE
:101D3000180000201700002010B50022002340F6F4
:101D40006A14A14200D100BF0A1201249440A3B238
:101D5000DC43048010BD21B1828942F400528281AB
:101D600004E082894DF6FF731A4082817047024673
:101D70000020B1F5007F00D100BF13880B400BB1EC
:101D8000012000E00020704770B5024600240023C7
:101D90000025002040F66A16B14200D100BFC1F311
:101DA000421501F01F03012606FA03F3012D02D1AB
:101DB0009689334006E0022D02D1168A334001E0B5
:101DC000968A33400C12012606FA04F41688344031
:101DD00013B10CB1012000E0002070BDF0B5034646
:101DE000002400260025002040F66A17B94200D1E1
:101DF00000BF1846C1F3421401F01F06012707FA7D
:101E000006F5012C01D10C3004E0022C01D1103078
:101E100000E014301AB107682F43076002E007683A
:101E2000AF430760F0BD00002DE9F04786B00546DE
:101E30000E460024A24600BFA1460027B08900B18B
:101E400000BF2F462C8A4CF6FF700440F0880443F4
:101E50002C82AC894EF6F3100440B08831890843D7
:101E6000718908430443AC81AC8A4FF6FF400440BB
:101E7000B0890443AC8201A8FFF7A0FB1F4887424A
:101E800002D1DDF810A001E0DDF80CA0A88900F473
:101E9000004040B10AEBCA0000EB0A10316849006B
:101EA000B0FBF1F807E00AEBCA0000EB0A1031685A
:101EB0008900B0FBF1F86420B8FBF0F004012009C0
:101EC000642101FB1089A88900F4004040B1322050
:101ED00000EBC900B0FBF1F000F00700044308E09C
:101EE000322000EB09106421B0FBF1F000F00F008C
:101EF00004432C8106B0BDE8F087000000380140A3
:101F000001468888C0F308007047C1F30802828048
:101F1000704700BFFEE7000010B586B004460121FF
:101F20000820FFF73BFB01218804FFF717FB4FF464
:101F30008060ADF8140018208DF8170003208DF88C
:101F4000160005A91F48FEF7E9FC4FF40060ADF844
:101F5000140004208DF8170005A91A48FEF7DEFCCE
:101F600001940020ADF80800ADF80A00ADF80C00AF
:101F7000ADF810000C20ADF80E0001A91248FFF7D3
:101F800053FF27208DF8000000208DF8010002206B
:101F90008DF8020001208DF803006846FEF7DCFF93
:101FA000012240F225510848FFF718FF012240F2B4
:101FB00024410548FFF712FF01210348FFF7CBFE3C
:101FC00006B010BD000C0140004800400FB430B511
:101FD000CBB0054601AC50A800904FF4947101A815
:101FE000009B4F9A00F04AF8002000900BE014F894
:101FF000011B2846FFF789FF00BF40212846FFF755
:10200000B6FE0028F9D020780028F0D14BB030BCC3
:102010005DF814FB70B504460D4629462046FFF7CF
:1020200074FF00BF80212046FFF7A1FE0028F9D0F1
:1020300070BD70B506460C46002500BF615D304698
:10204000FFF7E8FF6D1C605D0028F7D100BF40215D
:102050003046FFF78CFE0028F9D070BD0FB4054B59
:1020600010B503A9044A029800F002F910BC5DF80B
:1020700014FB0000BF290008400000207CB5044686
:1020800000201D46164600290BD0491ECDE900410F
:10209000044B6A462946304600F0EAF8009A0021CF
:1020A00011707CBD9F29000837B514460846064BC1
:1020B0006A46214600F0DCF804466946002000F03C
:1020C00079FC20463EBD0000B529000802E008C8A2
:1020D000121F08C1002AFAD170477047002001E0A2
:1020E00001C1121F002AFBD1704700002DE9FF5FDC
:1020F00082B00021DDE90430020DDDF840B0034379
:1021000018D044F61050A2F2FF3242431514119831
:1021100001281FD0A5EB0B00401C5FEA000A4FF01E
:1021200000064E4FDFF83891B046504615D5CAF13B
:10213000000413E0119801244AA3012801D16FEA99
:102140000B010298119AC0E90031C0E9024206B0C1
:10215000BDE8F09FCBF10000DFE704460021404AD4
:10216000491842EB0450CDE9001012E0E00707D017
:1021700032463B4640464946FEF7CFF88046894600
:1021800032463B4610461946FEF7C7F806460F464C
:102190006410002CEAD1DDE90401DDE90023BAF185
:1021A000000F06DAFEF7B9F842464B46FEF7B5F8DF
:1021B00005E0FEF724F942464B46FEF720F90446B7
:1021C0000E460022284BFEF789F903D84FF0FF3066
:1021D000014607E00022254B20463146FDF7F6FF79
:1021E000FEF769FA102409E0002C0ADB0A2200231A
:1021F000FEF7A2F9039B30321A55641E50EA010221
:10220000F2D1641C039AC4F111031444119A012AF7
:1022100003D0012208430DD10AE0084304D0002076
:102220004FF0110B119072E7A3EB0B056D1E0DE043
:102230005B4504DD4FF0000205F1010504E003DA1F
:102240004FF00002A5F10105002AECD00298119987
:10225000C0E90231C0E9004579E700000000144000
:102260000000F03F300000000000F0430000E03FBD
:102270002DE9FF4F95B09B468946064600250FE2A3
:10228000252877D100242746F84A0121059400E04B
:10229000044316F8013F203B01FA03F01042F7D146
:1022A00030782A2811D06FF02F033078A0F1300257
:1022B000092A16D8059A44F0020402EB820203EBC5
:1022C00042021044761C0590EFE759F8042B059262
:1022D000002A03DA504244F40054059044F002040A
:1022E000761C30782E2816D116F8010F44F004041D
:1022F0002A280DD06FF02F023078A0F13003092B7F
:1023000009D807EB870302EB4303C718761CF3E7F2
:1023100059F8047B761C30786C280FD006DC4C28EA
:1023200017D068280DD06A2814D104E0742810D082
:102330007A280FD10DE044F400140AE044F480142C
:1023400001E044F440147278824202D104F5801412
:10235000761C761C307866280BD013DC582877D092
:1023600009DC002875D04528F6D04628F4D0472847
:102370001AD19DE118E0632835D0642879D065280A
:1023800012D195E1702873D008DC6728F1D0692854
:102390006FD06E280DD06F2806D1B5E073282CD0F1
:1023A000752875D0782874D05A46179990476D1CB7
:1023B00075E1C4F30250022809D003280DD0D9F8E2
:1023C000001004280DD00D6009F1040967E1D9F867
:1023D0000010EA17C1E90052F6E7D9F800100D80A5
:1023E000F2E70D70F0E719F8041B8DF800100020DB
:1023F0008DF80100EA46012003E059F804AB4FF0E4
:10240000FF3061074FF0000102D40DE008F1010137
:102410008846B9420FDA8045F8DB1AF8081000291F
:10242000F4D108E008F1010188468142FADB1AF88C
:1024300008100029F6D105985B46A0EB0807214655
:102440003846179A00F094FA284400EB080507E094
:102450004DE029E10DE01AF8010B5A461799904713
:10246000B8F10108F7D25B4621463846179A13E1C6
:1024700042E00A220092C4F302524FF0000A022AFC
:1024800008D059F804CB032A4FEAEC710AD00DE0CA
:1024900029E02AE009F1070121F00702F2E802C170
:1024A000914609E00FFA8CFC4FEAEC71042A03D143
:1024B0004FFA8CFC4FEAEC71002907DA0A4600213A
:1024C000DCF1000C61EB02012D2202E0220504D5B3
:1024D0002B228DF80420012203E0E20701D0202204
:1024E000F7E7904659E00A2102E010220DE01021A2
:1024F0004FF0000A00910BE010224FF0000A44F068
:1025000004040827009203E008224FF0000A00921A
:10251000C4F30252022A05D059F804CB0021032A41
:1025200008D009E009F1070121F00702F2E802C131
:10253000914605E01FFA8CFC042A01D10CF0FF0C37
:102540004FF00008220728D5702806D0009B83F0A2
:10255000100353EA0A0305D00EE040228DF8042050
:10256000012208E05CEA010206D030228DF8042046
:102570008DF8050002229046009B83F0080353EA81
:102580000A030AD15CEA010201D1620705D53022B3
:102590008DF804204FF001087F1E582804D034A085
:1025A00003900EA802900DE036A0F9E7534660466E
:1025B000009AFDF7C1FF84460398825C0298401E92
:1025C000029002705CEA0100F0D1029806A9081A94
:1025D00000F1200A600702D524F4803400E00127CE
:1025E000574502DDA7EB0A0000E0002000EB0A01DE
:1025F000009005984144401A0590E00306D45B46DC
:102600002146179A059800F0B3F90544002706E023
:1026100001A85A46C05D179990476D1C7F1C47451D
:10262000F6DBE0030CD55B462146179A059800F0CF
:102630009FF9054404E030205A46179990476D1CD5
:102640000099481E00900029F5DC08E002980299E4
:102650005A460078491C0291179990476D1CBAF1AF
:102660000001AAF1010AF1DC65E10000092801007E
:1026700030313233343536373839616263646566F8
:1026800000000000303132333435363738394142BA
:10269000434445460000000000F058F90544761C0C
:1026A000307800287FF4ECAD19B02846BDE8F08FF3
:1026B000620700D4062709F1070222F0070CFCE8A4
:1026C0000223E14603F000485FEA080C02D00FF253
:1026D000702C0DE05FEA045C02D50FF2682C07E075
:1026E0005FEAC47C02D00FF2602C01E0AFF2700C04
:1026F0004FF0FF3823F00043CDF850C065280CD0D0
:1027000006DC452809D046281DD047283DD13DE0AC
:10271000662818D067287ED138E00021112F01DB10
:10272000112000E0781CCDE9000106A90EA8FFF7F2
:10273000DDFCDDE90F010E9A03910021009207F103
:10274000010A04914DE04FF000400097CDE90110DF
:1027500006A90EA8FFF7CAFCDDE90F0203920E9B43
:1027600011990022DDF80CA00093049211B9791C94
:1027700000EB010AB7EB0A0004D4C0F1FF3007F107
:10278000010A0490AAEB0700019044E0012F00DA4F
:1027900001270021112F01DD112000E03846CDE98D
:1027A000000106A90EA8FFF7A1FCDDE90F010E9AB2
:1027B0000391002104910092BA4621070CD4039999
:1027C000514500DA8A46BAF1010F05DD009AAAF1F7
:1027D0000101515C302908D0B84202DA10F1040F2F
:1027E00006DA0121CDE9011015E0AAF10101E9E7BE
:1027F000002805DC049901440491AAEB000102E0E1
:10280000411C514500DD8A460499401A401C019044
:102810004FF000400290200704D40198504501DB9E
:10282000CDF8048000208DF84F0002980DF14F077D
:10283000B0F1004F25D02B200E9002984FF00208E7
:1028400000280CDA404202902D200E9007E00A2169
:102850000298FDF75BFE3031029007F8011DB8F1D8
:102860000001A8F10108F2DC02980028EFD1791EDE
:102870000E980870307800F0200040F0450007F80E
:10288000020D12A8C01B00F107081498007800B1CF
:10289000012000EB0A01019801EBE0710598414429
:1028A000401A401E0590E00306D45B462146179A65
:1028B000059800F05DF805441498007818B15A4660
:1028C000179990476D1CE00324D55B462146179A63
:1028D000059800F04DF805441CE00498002807DB3B
:1028E000DDE90301884203DD0098405C179901E0AF
:1028F000179930205A469047049805F10105401C6D
:1029000004900198401E019004D12E205A46179938
:1029100090476D1CBAF10001AAF1010ADDDC05E067
:1029200017F8010B5A46179990476D1CB8F1000132
:10293000A8F10108F4DC5B462146179A0598ABE63E
:102940002D0000002B000000200000002DE9F041C8
:10295000044600251E461746880404D405E039467F
:102960002020B0476D1C641EF9D52846BDE8F081D3
:102970002DE9F041044600251E469046C80301D5C6
:10298000302700E02027880404D505E0414638467A
:10299000B0476D1C641EF9D52846BDE8F0814A6831
:1029A000002A06D00A68531C0B6010704868401E4D
:1029B000486070470A68531C0B601070704770B510
:1029C00004460D46E0B2FEF7DDFF204670BD000074
:1029D0001CB5FEF7C7FBFEF7A1F8FEF76BF84FF446
:1029E0001650FEF775FF4FF4E130FFF795FA4FF4FC
:1029F0001650FEF74DFEFEF72FF903E04FF4FA7084
:102A0000FDF769FFFDF7B0FE0028F7D1082360A2AB
:102A100000210846FEF7C6FC08235FA20F21002014
:102A2000FEF7C0FC08235EA21F210020FEF7BAFCBF
:102A30005EA0FFF713FBFEF73DFD5EA16048FFF7C8
:102A4000F8FAA3E05F480078012852D100205D49E0
:102A500008705D495D48FFF7B9FA102380222F21E5
:102A60000020FEF7CFFA0823574A2F210020FEF757
:102A700099FC57A15448FDF789FB20B1FEF736F8C1
:102A800056A0FEF78FFF58A14F48FDF77FFB20B1FE
:102A9000FEF724F857A0FEF785FF5AA14A48FDF734
:102AA00075FB20B1FEF7F2F859A0FEF77BFF5CA1A1
:102AB0004548FDF76BFB20B1FEF742FA5BA0FEF73D
:102AC00071FF5EA14048FDF761FB20B1FEF71EF8E3
:102AD0004FA0FEF767FF5BA13B48FDF757FB20B116
:102AE000FEF70CF851A0FEF75DFF80213648FDF798
:102AF00042FBFDF7B3FF5549087055495548FDF7AE
:102B0000A6FE5448007854A30822002100902A20F1
:102B1000FEF775FB4E4800784FA308220F21009066
:102B20002A20FEF76CFBFEF7C5FC4D4800784D49A6
:102B30000978CDE900104C4803784C4802784CA144
:102B40001F48FFF743FA4248007800904148037855
:102B50003F4802784EA11D48FFF738FAFEF75CFEA9
:102B60003A480078012806D151A11548FFF72EFAFE
:102B700056A0FFF773FA35480078022806D155A110
:102B80000F48FFF723FA5AA0FFF768FA5AE7000048
:102B9000CEC2B6C83A000000CAAAB6C83A000000C1
:102BA000BDD3CAD5CAFDBEDD3A0000004F4B200D93
:102BB0000A0000005553415254335F4F4B00000050
:102BC0000048004017000020A80400200038014001
:102BD00046414E5F44335F4F4E0000004C45445F1A
:102BE0004F4E5F4F4B0D0A0046414E5F44335F4FDF
:102BF000464600004C45445F4F46465F4F4B0D0A2A
:102C0000000000004D4F544F525F4F4E0000000037
:102C10004D4F544F525F4F4E5F4F4B0D0A00000017
:102C20004D4F544F525F4F46460000004D4F544F9A
:102C3000525F4F46465F4F4B0D0A000054544C5FA5
:102C40004F4E000054544C5F4F4646003B0000205E
:102C50003D0000203C0000202564202020000000D2
:102C60001E0000201D0000201C0000201F0000206E
:102C7000434F3A25642C54454D503A25642C485511
:102C80004D493A25642C4C75783A25640D0A0000AC
:102C9000434F3A25642C54454D503A25642C4855F1
:102CA0004D493A25642C4C75783A34300D0A0000B1
:102CB000434F3A32302C54454D503A32352E362C53
:102CC00048554D493A33350D0A000000B0B4CFC223
:102CD00031000000434F3A32342C54454D503A35C0
:102CE000352E362C48554D493A34350D0A00000032
:102CF000B0B4CFC2320000007FB505460C460121BA
:102D00000420FEF72BFCADF80850ADF8044000207D
:102D1000ADF80600ADF80A0001A91048FEF70EFF55
:102D200001210E48FEF7F2FE012211460B48FEF784
:102D3000FCFE00210948FEF7ECFE1E208DF8000085
:102D400006208DF8010000208DF8020001208DF88A
:102D500003006846FEF700F97FBD00000008004050
:102D60000000000000000000000000000000000063
:102D7000000000F8000000000000003330000000F8
:102D800000160E00160E00000000000000000000FB
:102D900040C07840C0784000043F04043F04040071
:102DA000007088FC08300000001820FF211E000081
:102DB000F008F000E018000000211C031E211E0096
:102DC00000F00888700000001E212324192721101C
:102DD000000000160E0000000000000000000000CF
:102DE000000000E018040200000000071820400066
:102DF00000020418E0000000004020180700000056
:102E0000404080F0804040000202010F01020200B9
:102E1000000000F0000000000101011F010101009D
:102E2000000000000000000000B070000000000082
:102E3000000000000000000000010101010101018B
:102E40000000000000000000003030000000000022
:102E500000000000806018040060180601000000F7
:102E600000E010080810E000000F102020100F00F4
:102E7000001010F8000000000020203F202000007B
:102E800000700808088870000030282422213000D3
:102E900000300888884830000018202020110E00DB
:102EA0000000C02010F8000000070424243F240084
:102EB00000F80888880808000019212020110E0059
:102EC00000E0108888180000000F112020110E006B
:102ED00000380808C83808000000003F0000000063
:102EE0000070880808887000001C222121221C0024
:102EF00000E010080810E0000000312222110F004D
:102F0000000000C0C00000000000003030000000E1
:102F1000000000C0C0000000000080B07000000091
:102F2000000080402010080000010204081020006A
:102F300040404040404040000404040404040400B5
:102F4000000810204080000000201008040201004A
:102F5000007048080808F00000000030360100004A
:102F6000C030C828E810E0000718272423140B00FD
:102F70000000C038E0000000203C23020227382077
:102F800008F8888888700000203F202020110E005B
:102F9000C030080808083800071820202010080052
:102FA00008F808080810E000203F202020100F003B
:102FB00008F88888E8081000203F20202320180007
:102FC00008F88888E8081000203F2000030000006F
:102FD000C03008080838000007182020221E020010
:102FE00008F808000008F808203F210101213F20CF
:102FF000000808F8080800000020203F20200000FA
:1030000000000808F8080800C08080807F000000E9
:1030100008F888C028180800203F20012638200022
:1030200008F8080000000000203F20202020300089
:1030300008F8F800F8F80800203F003F003F2000A3
:1030400008F830C00008F808203F200007183F00AB
:10305000E01008080810E0000F10202020100F00DA
:1030600008F808080808F000203F210101010000CD
:10307000E01008080810E0000F18242438504F0012
:1030800008F8888888887000203F2000030C3020D2
:1030900000708808080838000038202121221C0010
:1030A000180808F8080818000000203F2000000059
:1030B00008F808000008F808001F202020201F0042
:1030C0000878880000C83808000007380E010000A2
:1030D000F80800F80008F800033C0700073C03006C
:1030E000081868808068180820302C03032C3020D2
:1030F0000838C800C83808000000203F2000000041
:1031000010080808C8380800203826212020180098
:10311000000000FE020202000000007F404040006C
:10312000000C30C000000000000000010638C000A4
:1031300000020202FE000000004040407F0000004C
:10314000002010080408102000000000000000000B
:10315000000000000000000080808080808080806F
:103160000002040800000000000000000000000051
:1031700000008080808000000019242222223F204D
:1031800008F8008080000000003F112020110E0090
:103190000000008080800000000E1120202011001F
:1031A000000000808088F800000E112020103F20D1
:1031B0000000808080800000001F22222222130055
:1031C000008080F0888888180020203F20200000A0
:1031D0000000808080808000006B94949493600055
:1031E00008F8008080800000203F210000203F2060
:1031F00000809898000000000020203F2020000060
:10320000000000809898000000C08080807F00004F
:1032100008F8000080808000203F24022D3020002C
:10322000000808F8000000000020203F20200000D7
:103230008080808080808000203F20003F20003FF1
:10324000008080008080000000203F2100203F207F
:103250000000808080800000001F202020201F00B0
:10326000808000808000000080FFA12020110E00DF
:103270000000008080808000000E112020A0FF80D0
:10328000808080008080800020203F21200001007D
:1032900000008080808080000033242424241900D2
:1032A000008080E0808000000000001F20200000DF
:1032B0008080000000808000001F202020103F2020
:1032C000808080000080808000010E3008060100B0
:1032D00080800080008080800F300C030C300F0055
:1032E00000808000808080000020312E0E31200080
:1032F000808080000080808080818E7018060100B0
:1033000000808080808080000021302C22213000CD
:1033100000000000807C020200000000003F4040EE
:1033200000000000FF00000000000000FF0000009F
:103330000002027C800000000040403F00000000CE
:10334000008040408000008000000000000101007B
:103350000000000000000000002F00000000070037
:10336000070000147F147F1400242A7F2A120023F0
:10337000130864620036495522500000000700001F
:1033800000001C224100000041221C000014083EE5
:1033900008140008083E0808000000A060000008AB
:1033A00008080808000060600000002010080402FF
:1033B000003E5149453E0000427F400000426151BD
:1033C0004946002141454B31001814127F10002757
:1033D00045454539003C4A4949300001710905031A
:1033E00000364949493600064949291E000036364B
:1033F00000000000563600000008142241000014AE
:10340000141414140000412214080002015109068A
:10341000003E4955592E007C1211127C007F49490B
:103420004936003E41414122007F4141221C007F3C
:1034300049494941007F09090901003E4149497A4A
:10344000007F0808087F0000417F410000204041C4
:103450003F01007F08142241007F40404040007F30
:10346000020C027F007F0408107F003E4141413E74
:10347000007F09090906003E4151215E007F0919BC
:1034800029460046494949310001017F0101003FB9
:103490004040403F001F2040201F003F4038403F39
:1034A000006314081463000708700807006151499D
:1034B000454300007F414100000204081020000045
:1034C00041417F00000402010204004040404040AE
:1034D000000001020400002054545478007F484446
:1034E000443800384444442000384444487F00387D
:1034F0005454541800087E0901020018A4A4A47CA6
:10350000007F080404780000447D4000004080846F
:103510007D00007F102844000000417F4000007CB7
:1035200004180478007C08040478003844444438C3
:1035300000FC242424180018242418FC007C08040F
:10354000040800485454542000043F444020003CE8
:103550004040207C001C2040201C003C4030403C6F
:10356000004428102844001CA0A0A07C00446454FF
:103570004C440000087F41000000007F0000000074
:10358000417F0800000804081008C4E300008060C0
:10359000F8074020180F08C8080828180001000084
:1035A000FF00100C0340807F0001061800BAC30022
:1035B0001010F01F10F000808282E2928A86800054
:1035C000402215081661000040807F0000000000C6
:1035D000D4D9000202F292929292FE92929292F2C8
:1035E0000202000404FF0404040407040444847F6A
:1035F000040400BCFB00000000FE020202F2020212
:1036000002FE0000000080804047201806017E80F6
:1036100080878080E000CEC2001060028C0000FE37
:103620009292929292FE00000004047E01407E423B
:10363000427E427E42427E4000B6C8000000FC242A
:103640002424FC252624FC242424040040308F80DC
:10365000844C55252525554C80808000CAAA001031
:1036600060028C00FE929292929292FE0000000400
:10367000047E014448507F40407F5048444000BD94
:10368000D300101010FF1050445465C644645444D5
:1036900040000444827F0182824A562322524E8295
:1036A0000200CAD50000FC0000FF004020D817101F
:1036B00010F0101000000F0402FF008040211608D7
:1036C0001621408000CAFD0090523410FF10345281
:1036D00080708F0808F80800829A566322528E0084
:1036E0008040330C33408000BEDD001010FF10908E
:1036F00000FE929292F292929E800042827F01801E
:10370000601F00FC44474444FC0000000000FF012F
:1037100001013109090909897101010101FFFF80D6
:1037200080808080809681808080808080FFFF0103
:10373000818181FD8991A1C1FD81818101FFFF808E
:103740008080809F888482819F80808080FF0000AD
:10375000703700080000002044000000CC20000862
:10376000B4370008440000203C090000DC200008B9
:103770000000000001020304010203040607080917
:103780000204060800000000000000000000000025
:10379000020300000006C5FB03030000000185E8EA
:1037A0000000000000000000000000000000000019
:0437B0000000000015
:0400000508000131BD
:00000001FF
